:020000040000FA
:100000000A128A11E12F003400347F34F601F31F05
:100010000A280B281228F209F309F20A0319F30A35
:10002000F601F60AF11F152816281B28F009F10918
:10003000F00A0319F10A7008710403192028212815
:100040005028F501F50A2F2801300310F00DF10DAD
:10005000FF3E031D25280130F4007408F507F11F49
:1000600032283328242871087302031D39287008A8
:100070007202031C3C283D2843287008F2027108D4
:10008000031CF303F30201300310F10CF00CFF3EEC
:10009000031D44280130F502031D4F285028332842
:1000A00076080319542855285A28F209F309F20A48
:1000B0000319F30A7308F1007208F0000800F60152
:1000C000F11F632864286B28F009F109F00A03196D
:1000D000F10AF601F60AF31F6E286F287828F20954
:1000E000F309F20A0319F30A0130F4007408F60662
:1000F000F701F8017008710403197F288028B728D8
:10010000F501F50A8E2801300310F00DF10DFF3EC8
:10011000031D84280130F4007408F507F11F9128AD
:100120009228832801300310F70DF80DFF3E031DC0
:10013000932871087302031D9F2870087202031C24
:10014000A228A328AA287008F2027108031CF3034E
:10015000F302771401300310F10CF00CFF3E031D85
:10016000AB280130F502031DB628B728922876087F
:100170000319BB28BC28C128F709F809F70A031995
:10018000F80A7808F1007708F000080083120313DA
:10019000A3000A30F0000030F1002308A000A10104
:1001A0002008F2002108F3000A128A115F200A12C7
:1001B0008A11700883120313A2002208F90001308B
:1001C0000A128A1540230A128A110A30F000003000
:1001D000F100831203132308A000A1012008F200FC
:1001E0002108F3000A128A1106200A128A117008E7
:1001F00083120313A2002208F90002300A128A15A2
:1002000040230A128A110A30F0000030F1007D0804
:1002100083120313A000A1012008F2002108F300BB
:100220000A128A115F200A128A11700883120313BE
:10023000A2002208F90003300A128A1540230A128C
:100240008A110A30F0000030F1007D088312031398
:10025000A000A1012008F2002108F3000A128A116F
:1002600006200A128A11700883120313A2002208C2
:10027000F90004300A128A1540230A128A11080074
:100280008312031387120130FD005D0A4929031010
:10029000FD0DFF3E031D47297D085905031951290E
:1002A00052298B29A0012030FD007D08F900013082
:1002B0000A128A1540230A128A112030FD007D0897
:1002C000F90002300A128A1540230A128A114830B6
:1002D000FD007D08F90003300A128A1540230A1236
:1002E0008A11F901F90A04300A128A1540230A1208
:1002F0008A110A128A1543240A128A110130FD005C
:100300007D0883120313A0071E302002031C8929D5
:100310008A295329C229A1012030FD007D08F90056
:1003200001300A128A1540230A128A112030FD007A
:100330007D08F90002300A128A1540230A128A1138
:100340004C30FD007D08F90003300A128A15402365
:100350000A128A11F90104300A128A1540230A127E
:100360008A110A128A1543240A128A110130FD00EB
:100370007D0883120313A1071E302102031CC1292B
:10038000C2298C2987160800F2001D2A3F30F00090
:100390007008F3005A2A0630F0007008F3005A2A59
:1003A0005B30F0007008F3005A2A4F30F0007008FC
:1003B000F3005A2A6630F0007008F3005A2A6D30B4
:1003C000F0007008F3005A2A7D30F0007008F30046
:1003D0005A2A0730F0007008F3005A2A7F30F000E4
:1003E0007008F3005A2A6F30F0007008F3005A2AA0
:1003F0008030F0007008F3005A2A7730F00070085F
:10040000F3005A2A7C30F0007008F3005A2A793041
:10041000F0007008F3005A2A7630F0007008F300FC
:100420005A2A3830F0007008F3005A2A3130F000B0
:100430007008F3005A2AF3015A2A7208F000F101F9
:100440007108003A0319252A1B2A7008003A03197B
:10045000C629013A0319CB29033A0319D029013AD5
:100460000319D529073A0319DA29013A0319DF29B3
:10047000033A0319E429013A0319E9290F3A031948
:10048000EE29013A0319F329273A0319F8296F3A9B
:100490000319FD29043A0319072A0D3A03190C2AF6
:1004A000043A0319112A183A0319162A363A03197D
:1004B000022A1B2A7308080083120313DD0104308B
:1004C0005D02031C642A652A662AC92A5D08A00009
:1004D0002007A1002108F3000230A2002208F40046
:1004E0007F30A3002308F50062300A128A15AD237D
:1004F0000A128A1183120313620A031D802A812AB9
:100500009F2AE301E2016230A0002008F5007F305D
:10051000A1002108F6005D08A20022070A128A1530
:100520000D240A128A11831203135D08A00020070C
:100530004F3E840083138001840A8001C42A62082C
:10054000A000A1012008F0002108F1003C30F200D9
:100550000030F3000A128A1588230A128A118312C6
:10056000031363087007A2000030031801307107FD
:10057000A3005D08A40024074F3E840022088313D3
:100580008000840A230880000130A0002008DD07D5
:100590005F2ADD0108300A128A152B230A128A11FC
:1005A00083120313A0002008D900590A031DD92A79
:1005B000DA2AE22AD901F20108300A128A15BD248A
:1005C0000A128A1183120313D801FC017C08A000CF
:1005D0002007473E840083138001840A8001013094
:1005E000A0002008FC0704307C02031CF82AF92A2A
:1005F000E62A080083160313860189018801850114
:100600000F30870083120313890188018701860157
:100610008501303090008E018F010A128A15062361
:100620000A128A11023083120313B6004530B50056
:10063000A930B400B40B1A2BB50B1A2BB60B1A2B1E
:10064000203083120313B4003408F50000300A127E
:100650008A15DA230A128A110A128A115C220A12F6
:100660008A11831203138716DB01DC011014831235
:1006700003135B08B4003408FD005C080A128A11F9
:10068000C6200A128A110A128A1543240A128A11F4
:10069000831203135C08B400B5013408F000350878
:1006A000F1003C30F2000030F3000A128A15882372
:1006B0000A128A11831203135B087007C500003009
:1006C000031801307107C6005D08B4003408BD008E
:1006D000DD0104305D02031C6E2B6F2B702BA62DE9
:1006E0000A128A1543240A128A1101308312031355
:1006F000B4005D0A7D2B0310B40DFF3E031D7B2B60
:10070000340859050319852B862B9B2B5D08B400F3
:1007100034074F3E840083130008B500840A0008A4
:10072000B60046083606031D972B45083506031903
:100730009A2B9B2BBF2B0130B4005D0AA12B031019
:10074000B40DFF3E031D9F2B340858050319A92B38
:10075000AA2BA12D5D08B4003407473E8400831303
:100760000008B500840A0008B60046083606031DD6
:10077000BB2B45083506031DBE2BBF2BA12D3C30DE
:10078000F0000030F1004608F3004508F2000A12BC
:100790008A115F200A128A11700883120313B400B1
:1007A0003408DF003C30F0000030F1004608F30070
:1007B0004508F2000A128A1106200A128A117008EE
:1007C00083120313B4003408DE00C4010F30440266
:1007D000031CEB2BEC2BED2BC02CBF01FF2B5E0879
:1007E000B4003408A4005F080A128A1564230A12B0
:1007F0008A11013083120313B4003408BF0702309A
:100800003F020318042C052C112C8718082C092CE6
:10081000112C07180C2C0D2C112C071D102C112C31
:10082000EF2B8718142C152CC02C0718182C192CFA
:10083000C02C071D1C2C1D2C1E2CC02CC001352CBF
:100840005E08B4003408FD005F080A128A11C62051
:100850000A128A110A128A1543240A128A110130D7
:1008600083120313B4003408C0070A30400203188F
:100870003A2C3B2C472C87183E2C3F2C472C071832
:10088000422C432C472C071D462C472C202C871824
:100890004A2C4B2CC02C07184E2C4F2CC02C071D5B
:1008A000522C532C542CC02CC101662C5E08B40071
:1008B0003408A4005F080A128A1564230A128A11F8
:1008C000013083120313B4003408C107023041021F
:1008D00003186B2C6C2C782C87186F2C702C782CB0
:1008E0000718732C742C782C071D772C782C562C19
:1008F00087187B2C7C2CC02C07187F2C802CC02CBC
:10090000071D832C842C852CC02CC2019C2C5E08D6
:10091000B4003408FD005F080A128A11C6200A12CA
:100920008A110A128A1543240A128A11013083128D
:100930000313B4003408C207323042020318A12C5A
:10094000A22CAE2C8718A52CA62CAE2C0718A92CEF
:10095000AA2CAE2C071DAD2CAE2C872C8718B12CE1
:10096000B22CC02C0718B52CB62CC02C071DB92CE6
:10097000BA2CBB2CC02C0130B4003408C407E62BC1
:100980000130B4005D0AC62C0310B40DFF3E031DF8
:10099000C42C340858050319CE2CCF2CDA2C013086
:1009A000B4005D0AD52C0310B40DFF3E031DD32CFB
:1009B0003408D802871CDD2CDE2C112DEE2C5B08B0
:1009C000B4003408FD005C080A128A11C6200A121D
:1009D0008A110A128A1543240A128A1183120313F8
:1009E0008718F32CF42CDF2C0130B4005D0AFA2CAC
:1009F0000310B40DFF3E031DF82C3408D9020A126F
:100A00008A1543240A128A11831203135908B40069
:100A10003408F20008300A128A15BD240A128A111D
:100A2000A62D071C142D152D2C2D252D5B08B4008B
:100A30003408FD005C080A128A11C6200A128A11C5
:100A40000A128A1543240A128A1183120313071803
:100A50002A2D2B2D162DA62D071D2F2D302D692D5E
:100A6000402D5B08B4003408FD005C080A128A11AE
:100A7000C6200A128A110A128A1543240A128A1100
:100A8000831203130719452D462D312D0130831292
:100A90000313B4005D0A4E2D0310B40DFF3E031D79
:100AA0004C2D3408B5003508D8074508053EB4007C
:100AB00046080318013E003EB5005D08B600360743
:100AC000473E8400340883138000840A3508800080
:100AD000A62D5D08B40034074F3E84008313000840
:100AE000B500840A0008B60035080A3EB70036088B
:100AF0000318013E003EB8005D08B9003907473EC3
:100B000084000008BA00840A0008BB003B08803A51
:100B1000BC003808803A3C02031D902D37083A0289
:100B20000318932D942D952D462D831203135D08E4
:100B3000B4003407473E840083138001840A800197
:100B4000A62D0130B4003408DD07692B0A128A157E
:100B500043240A128A11831203133D08B400340897
:100B6000DD00871CB42DB52DDE2D0A128A15432415
:100B70000A128A11831203135C08B4003408E000DF
:100B80005B08B4003408E100A80160300A128A153D
:100B900001250A128A11003A0319CF2DD02D372BC7
:100BA0008312031310106008B4003408DC006108DD
:100BB000B4003408DB008E018F01362B071CE12DB9
:100BC000E22D372BF22D5B08B4003408FD005C08E1
:100BD0000A128A11C6200A128A110A128A1543249F
:100BE0000A128A11831203130718F72DF82DE32D2B
:100BF0000A128A1543240A128A1183120313590810
:100C0000B4003408BE000A128A1520230A128A1181
:100C10003C30F0000030F100831203135D08B40093
:100C200034074F3E840083130008F200840A000852
:100C3000F3000A128A115F200A128A1170088312C7
:100C40000313B5003508DF003C30F0000030F10040
:100C50005D08B40034074F3E840083130008F2009F
:100C6000840A0008F3000A128A1106200A128A1167
:100C7000700883120313B5003508DE000A128A15C6
:100C800043240A128A11831203135E08B400340845
:100C9000FD005F080A128A11C6200A128A11831207
:100CA0000313071D542E552E782E652E5E08B400B2
:100CB0003408FD005F080A128A11C6200A128A1140
:100CC0000A128A1543240A128A1183120313071980
:100CD0006A2E6B2E562E03305D020318702E712E75
:100CE000762E0130B4003408DD07032EDD01032E1B
:100CF000871D7B2E7C2E9F2E8C2E5E08B400340820
:100D0000FD005F080A128A11C6200A128A110A120F
:100D10008A1543240A128A11831203138719912E0C
:100D2000922E7D2E5D080319962E972E9A2E013055
:100D3000DD02032E0330B4003408DD00032E871CCF
:100D4000A22EA32EB22FC301BA2E5E08B40034081F
:100D5000FD005F080A128A11C6200A128A110A12BF
:100D60008A1543240A128A11013083120313B40036
:100D70003408C307193043020318BF2EC02EC42EF7
:100D80008718C32EC42EA52E8718C72EC82E0A2F4B
:100D90000130B4005D0ACE2E0310B40DFF3E031DDA
:100DA000CC2E340859050319D62ED72EEC2E01303F
:100DB000B4005D0ADD2E0310B40DFF3E031DDB2ED3
:100DC0003408D9025D08B4003407473E8400831319
:100DD0008001840A8001F92E0130B4005D0AF22EF0
:100DE0000310B40DFF3E031DF02E3408B500350886
:100DF000D9070A128A1543240A128A11831203138F
:100E000007160A128A1140210A128A11831203134B
:100E100007123E2E0A128A1543240A128A118312DF
:100E200003135F08B4003408E2005E08B40034081D
:100E3000E300A80162300A128A1501250A128A11FC
:100E4000003A0319242F252F3E2E0A128A15432417
:100E50000A128A118312031362085F06031D312FE1
:100E6000322F382F63085E060319372F382FAC2F27
:100E70000130B4005D0A3E2F0310B40DFF3E031D88
:100E80003C2F34085905031D462F472F542F01309E
:100E9000B4005D0A4D2F0310B40DFF3E031D4B2F10
:100EA0003408B5003508D9070A128A1543240A12F6
:100EB0008A11831203136208B4003408DF00630848
:100EC000B4003408DE005F08B400B5013408F00057
:100ED0003508F1003C30F2000030F3000A128A15A8
:100EE00088230A128A11831203135E087007B60062
:100EF0000030031801307107B7005D08B8003807EB
:100F00004F3E8400360883138000840A370880002F
:100F10005D08B4003407473E84008001840A8001E4
:100F20000A128A1543240A128A11623083120313AB
:100F3000B4003408F5007F30B5003508F6005D08D0
:100F4000B60036070A128A150D240A128A110A12EF
:100F50008A1543240A128A110A128A1140210A12A0
:100F60008A113E2E071CB52FB62FDD2FC62F5E0827
:100F7000B4003408FD005F080A128A11C6200A1264
:100F80008A110A128A1543240A128A118312031342
:100F90000718CB2FCC2FB72F59083E060319D12F96
:100FA000D22F372B5908B4003408F20008300A1247
:100FB0008A15BD240A128A11372B3E2E0A128A1175
:100FC00000280A128A1103200A128A11E2000A126A
:100FD0008A1104200A128A11E3000A128A110520DC
:100FE0000A128A11E40083134730840062300A1227
:100FF0008A150E230A128A1183010A128A11FA2A0B
:10160C00831203130D12831603178C130C1108008D
:10161C0064008001840A04060319003404060F2BAD
:10162C000430F1003D30F000F00B1A2BF10B1A2BAB
:10163C001F2B08000A128A157E240A128A150A1218
:10164C008A1140210A128A150800F20072088312CE
:10165C0003178D00831603170C140C18362B372B1D
:10166C00332B0A128A1516230A128A1583120317B2
:10167C000C080800FC000130FA007C08FF3E013E1B
:10168C00492B0310FA0DFF3E031D472B7A08FF3A36
:10169C0083120313850079080A128A11C4210A12D5
:1016AC008A158312031386002130FB007630FA0072
:1016BC00FA0B5E2BFB0B5E2B00000800831203134E
:1016CC00A60087120716A7012408A5002508FD000F
:1016DC0026080A128A11C6200A128A150A128A15BD
:1016EC0043240A128A15013083120313A50025081E
:1016FC00A7070A302702031C842B852B6A2B0712A1
:10170C0087160800F401F501701C8D2B8E2B942B81
:10171C007208F4070318F50A7308F5070130031073
:10172C00F20DF30DFF3E031D952B01300310F10C50
:10173C00F00CFF3E031D9C2B70087104031DA72B9E
:10174C00A82B8A2B7508F1007408F0000800F8002B
:10175C00F901C92B790873070A128A152B230A126F
:10176C008A15F60079087807F70077088400760860
:10177C00831380000A128A1516230A128A15013067
:10178C00F6007608F90774087902031CCE2BCF2BD0
:10179C00B02B7508F60079087807F70077088400F5
:1017AC007608831380000800F700750A031DDF2BF1
:1017BC00E02BEE2BFE30F6007608F500FF30F6003D
:1017CC007608F200FF300A128A15BD240A128A1517
:1017DC007708F6007608F800062CFF30F60076083D
:1017EC00F20078080A128A15BD240A128A150A1208
:1017FC008A1516230A128A150130F6007608F807A6
:10180C007808750203180B2C0C2CF32B0800F9002C
:10181C00FA01142C0130F7007708FA077A087507DB
:10182C00F70077088400831300087606031D1F2C2D
:10183C00202C102CFB013C2C7B087507F70077083B
:10184C00840083130008F8007808F2007B087907FD
:10185C000A128A15BD240A128A150A128A15162331
:10186C000A128A150130F7007708FB077A087B0209
:10187C00031C412C422C222C0800F430831203133D
:10188C000F02243003190E02031C4D2C4E2C7D2C00
:10189C008E018F010130F0007008D7070A3057060F
:1018AC00031D592C5A2C7D2CD7010130F0007008E7
:1018BC00DA073C305A06031D642C652C7D2CDA01AA
:1018CC000130F0007008DB073C305B06031D6F2C09
:1018DC00702C7D2CDB010130F0007008DC07183017
:1018EC005C06031D7A2C7B2C7D2CDC017D2C0800E6
:1018FC00831203138712A0014130FD007D08F9000B
:10190C0001300A128A1540230A128A154C30FD0048
:10191C007D08F90002300A128A1540230A128A1532
:10192C00F90103300A128A1540230A128A15831210
:10193C0003135D08013EFD007D08F90004300A1216
:10194C008A1540230A128A150A128A1543240A1290
:10195C008A150130FD007D0883120313A0071E3089
:10196C002002031CBA2CBB2C822C87160800F30017
:10197C00831203130D1EC32CC42CCA2C83160317FD
:10198C008C1CC92CCA2CD02C831603178C18CF2C6A
:10199C00D02CCA2C0A128A1516230A128A15831205
:1019AC0003130D127308831203178D0072088C0039
:1019BC00831603170C1500308B1B0130F4008B13AE
:1019CC0055308D00AA308D008C147418EE2CF02C30
:1019DC008B17F12C8B13831603170C11831603171B
:1019EC008C18F92CFA2CF42C831203130D1EFF2CDB
:1019FC00002DF42C080083120313B3008712AB01E3
:101A0C00722DAC01422D2030A9002908F9000130BB
:101A1C000A128A1540230A128A1505308312031301
:101A2C00A9002908F90002300A128A1540230A126B
:101A3C008A15453083120313A9002908F9000330D5
:101A4C000A128A1540230A128A1554308312031382
:101A5C00A9002908F90004300A128A1540230A1239
:101A6C008A150A128A1543240A128A150130831228
:101A7C000313A9002908AC0728302C020318472DA2
:101A8C00482D4C2D87184B2D4C2D092DAD01642D57
:101A9C008601823083120313AA00DD30A900A90B42
:101AAC00552DAA0B552D0A128A1543240A128A1594
:101ABC00013083120313A9002908AD070A302D0247
:101ACC000318692D6A2D6E2D87186D2D6E2D4E2DD8
:101ADC000130A9002908AB0702302B020318772D1F
:101AEC00782D7C2D87187B2D7C2D072D8716871C38
:101AFC00802D812DB32F330A840083130008A90095
:101B0C002908A4003308840000080A128A156423EB
:101B1C000A128A15A52D330A840083130008A90024
:101B2C002908FD003308840000080A128A11C62017
:101B3C000A128A150A128A1543240A128A1583126C
:101B4C0003138718AA2DAB2D912D330A8400831310
:101B5C000008A9002908FD003308840000080A12B7
:101B6C008A11C6200A128A150A128A1543240A12EF
:101B7C008A1583120313071DC42DC52D7F2E01302A
:101B8C00A90028083307AA002A088400290883130F
:101B9C00800728080319D32DD42DE52D28083307E9
:101BAC00A900290884003C300006031DDE2DDF2D22
:101BBC00E52D28083307A90029088400800128088E
:101BCC00031DE92DEA2DFB2D28083307A900290850
:101BDC00840018300006031DF42DF52DFB2D28086C
:101BEC003307A900290884008001AF01330A84005F
:101BFC0083130008A9002908FD003308840000089D
:101C0C000A128A11C6200A128A150A128A1543244E
:101C1C000A128A15013083120313A9002908AF0791
:101C2C0019302F02031C1B2E1C2EFC2D7B2E0A128E
:101C3C008A1543240A128A15013083120313A90052
:101C4C0028083307AA002A08840029088313800770
:101C5C0028080319322E332E442E28083307A900E6
:101C6C00290884003C300006031D3D2E3E2E442ED8
:101C7C0028083307A9002908840080012808031DBF
:101C8C00482E492E5A2E28083307A900290884000B
:101C9C0018300006031D532E542E5A2E28083307D5
:101CAC00A900290884008001B001330A8400831341
:101CBC000008A9002908FD003308840000080A1256
:101CCC008A11C6200A128A150A128A1543240A128E
:101CDC008A15013083120313A9002908B0070A30B2
:101CEC003002031C7A2E7B2E5B2E07197E2E7F2E44
:101CFC001D2E871D822E832E5C2F28083307A900EA
:101D0C00290884008313000803198D2E8E2E962E1D
:101D1C0028083307A9002908840001308002C72E47
:101D2C00280803199A2E9B2EAF2E28083307A900DA
:101D3C00290884000008031DA42EA52EAF2E3B30CD
:101D4C00A90028083307AA002A0884002908800063
:101D5C00C72E2808031DB32EB42EC72E2808330710
:101D6C00A900290884000008031DBD2EBE2EC72E15
:101D7C001730A90028083307AA002A08840029086C
:101D8C008000B10119303102031CCD2ECE2ECF2E86
:101D9C00582F330A840083130008A9002908FD007A
:101DAC003308840000080A128A11C6200A128A1508
:101DBC000A128A1543240A128A150130831203135E
:101DCC00A9002908B107C82E0A128A1543240A1241
:101DDC008A158312031328083307A90029088400E5
:101DEC00831300080319FB2EFC2E042F280833073D
:101DFC00A9002908840001308002352F2808031916
:101E0C00082F092F1D2F28083307A9002908840043
:101E1C000008031D122F132F1D2F3B30A90028087B
:101E2C003307AA002A08840029088000352F2808C7
:101E3C00031D212F222F352F28083307A90029082D
:101E4C0084000008031D2B2F2C2F352F1730A900D1
:101E5C0028083307AA002A08840029088000B20148
:101E6C000A303202031C3B2F3C2F3D2F582F330AD4
:101E7C00840083130008A9002908FD00330884009E
:101E8C0000080A128A11C6200A128A150A128A152B
:101E9C0043240A128A15013083120313A90029085E
:101EAC00B207362F87195B2F5C2FEA2E071C5F2F8A
:101EBC00602F852F752F330A840083130008A90027
:101ECC002908FD003308840000080A128A11C62074
:101EDC000A128A150A128A1543240A128A158312C9
:101EEC00031307187A2F7B2F612F280803197F2FD4
:101EFC00812F0130822F0030A9002908A800871CEF
:101F0C00882F892FAB2DAE01A52F330A84008313A4
:101F1C000008A9002908FD003308840000080A12F3
:101F2C008A11C6200A128A150A128A1543240A122B
:101F3C008A15013083120313A9002908AE076430F7
:101F4C002E020318AA2FAB2FAF2F8718AE2FAF2F4F
:101F5C008B2F8718B22FB32FB52F0030FF2F330ADA
:101F6C00840083130008A9002908A4003308840006
:101F7C0000080A128A1564230A128A15F82F2030D9
:101F8C00A9002908F90001300A128A1540230A1207
:101F9C008A15053083120313A9002908F9000230B1
:101FAC000A128A1540230A128A154530831203132C
:101FBC00A9002908F90003300A128A1540230A12D5
:101FCC008A15543083120313A9002908F900043030
:101FDC000A128A1540230A128A150A128A154324FA
:101FEC000A128A15831203138718FD2FFE2FC52F93
:041FFC0001300800A8
:02400E003A3F37
:00000001FF
